{
  "_format": "hh-sol-artifact-1",
  "contractName": "MyUniversalRouter",
  "sourceName": "contracts/MyUniversalRouter.sol",
  "abi": [
    {
      "inputs": [],
      "stateMutability": "nonpayable",
      "type": "constructor"
    },
    {
      "inputs": [
        {
          "internalType": "address",
          "name": "token",
          "type": "address"
        }
      ],
      "name": "SafeERC20FailedOperation",
      "type": "error"
    },
    {
      "anonymous": false,
      "inputs": [
        {
          "indexed": true,
          "internalType": "address",
          "name": "user",
          "type": "address"
        },
        {
          "indexed": true,
          "internalType": "address",
          "name": "router",
          "type": "address"
        },
        {
          "indexed": false,
          "internalType": "uint256",
          "name": "value",
          "type": "uint256"
        },
        {
          "indexed": false,
          "internalType": "bool",
          "name": "success",
          "type": "bool"
        }
      ],
      "name": "SwapExecuted",
      "type": "event"
    },
    {
      "anonymous": false,
      "inputs": [
        {
          "indexed": true,
          "internalType": "address",
          "name": "user",
          "type": "address"
        },
        {
          "indexed": true,
          "internalType": "address",
          "name": "tokenIn",
          "type": "address"
        },
        {
          "indexed": true,
          "internalType": "address",
          "name": "router",
          "type": "address"
        },
        {
          "indexed": false,
          "internalType": "uint256",
          "name": "amountIn",
          "type": "uint256"
        },
        {
          "indexed": false,
          "internalType": "bool",
          "name": "success",
          "type": "bool"
        }
      ],
      "name": "TokenSwapExecuted",
      "type": "event"
    },
    {
      "inputs": [
        {
          "internalType": "address",
          "name": "_router",
          "type": "address"
        },
        {
          "internalType": "bytes",
          "name": "_calldata",
          "type": "bytes"
        },
        {
          "internalType": "address",
          "name": "_to",
          "type": "address"
        }
      ],
      "name": "executeSwap",
      "outputs": [],
      "stateMutability": "payable",
      "type": "function"
    },
    {
      "inputs": [
        {
          "internalType": "address",
          "name": "_token",
          "type": "address"
        },
        {
          "internalType": "address",
          "name": "_router",
          "type": "address"
        },
        {
          "internalType": "bytes",
          "name": "_calldata",
          "type": "bytes"
        },
        {
          "internalType": "uint256",
          "name": "_amount",
          "type": "uint256"
        },
        {
          "internalType": "address",
          "name": "_to",
          "type": "address"
        }
      ],
      "name": "executeTokenSwap",
      "outputs": [],
      "stateMutability": "nonpayable",
      "type": "function"
    },
    {
      "inputs": [],
      "name": "owner",
      "outputs": [
        {
          "internalType": "address",
          "name": "",
          "type": "address"
        }
      ],
      "stateMutability": "view",
      "type": "function"
    },
    {
      "inputs": [],
      "name": "withdrawStuckBNB",
      "outputs": [],
      "stateMutability": "nonpayable",
      "type": "function"
    },
    {
      "inputs": [
        {
          "internalType": "address",
          "name": "tokenAddress",
          "type": "address"
        }
      ],
      "name": "withdrawStuckTokens",
      "outputs": [],
      "stateMutability": "nonpayable",
      "type": "function"
    },
    {
      "stateMutability": "payable",
      "type": "receive"
    }
  ],
  "bytecode": "0x60a060405234801561001057600080fd5b503373ffffffffffffffffffffffffffffffffffffffff1660808173ffffffffffffffffffffffffffffffffffffffff1681525050608051610e0d61007c6000396000818161010c0152818161019a015281816102030152818161045a01526104f00152610e0d6000f3fe60806040526004361061004e5760003560e01c8063484ed3341461005a5780638da5cb5b14610071578063b492ee5a1461009c578063cb963728146100c5578063de291607146100ee57610055565b3661005557005b600080fd5b34801561006657600080fd5b5061006f61010a565b005b34801561007d57600080fd5b50610086610201565b60405161009391906108b5565b60405180910390f35b3480156100a857600080fd5b506100c360048036038101906100be91906109a1565b610225565b005b3480156100d157600080fd5b506100ec60048036038101906100e79190610a3b565b610458565b005b61010860048036038101906101039190610a68565b6105b3565b005b7f000000000000000000000000000000000000000000000000000000000000000073ffffffffffffffffffffffffffffffffffffffff163373ffffffffffffffffffffffffffffffffffffffff1614610198576040517f08c379a000000000000000000000000000000000000000000000000000000000815260040161018f90610b39565b60405180910390fd5b7f000000000000000000000000000000000000000000000000000000000000000073ffffffffffffffffffffffffffffffffffffffff166108fc479081150290604051600060405180830381858888f193505050501580156101fe573d6000803e3d6000fd5b50565b7f000000000000000000000000000000000000000000000000000000000000000081565b6102523330848973ffffffffffffffffffffffffffffffffffffffff166106d1909392919063ffffffff16565b8573ffffffffffffffffffffffffffffffffffffffff1663095ea7b386846040518363ffffffff1660e01b815260040161028d929190610b68565b6020604051808303816000875af11580156102ac573d6000803e3d6000fd5b505050506040513d601f19601f820116820180604052508101906102d09190610bc9565b5060008573ffffffffffffffffffffffffffffffffffffffff1685856040516102fa929190610c35565b6000604051808303816000865af19150503d8060008114610337576040519150601f19603f3d011682016040523d82523d6000602084013e61033c565b606091505b5050905080610380576040517f08c379a000000000000000000000000000000000000000000000000000000000815260040161037790610c9a565b60405180910390fd5b60004711156103d1578173ffffffffffffffffffffffffffffffffffffffff166108fc479081150290604051600060405180830381858888f193505050501580156103cf573d6000803e3d6000fd5b505b8573ffffffffffffffffffffffffffffffffffffffff168773ffffffffffffffffffffffffffffffffffffffff168373ffffffffffffffffffffffffffffffffffffffff167f636002f1720833b51b87b377bdb9d5bc7fb255da32b2a803586444bddc5e041a8685604051610447929190610cc9565b60405180910390a450505050505050565b7f000000000000000000000000000000000000000000000000000000000000000073ffffffffffffffffffffffffffffffffffffffff163373ffffffffffffffffffffffffffffffffffffffff16146104e6576040517f08c379a00000000000000000000000000000000000000000000000000000000081526004016104dd90610b39565b60405180910390fd5b60008190506105af7f00000000000000000000000000000000000000000000000000000000000000008273ffffffffffffffffffffffffffffffffffffffff166370a08231306040518263ffffffff1660e01b815260040161054891906108b5565b602060405180830381865afa158015610565573d6000803e3d6000fd5b505050506040513d601f19601f820116820180604052508101906105899190610d07565b8373ffffffffffffffffffffffffffffffffffffffff166107539092919063ffffffff16565b5050565b60008473ffffffffffffffffffffffffffffffffffffffff163485856040516105dd929190610c35565b60006040518083038185875af1925050503d806000811461061a576040519150601f19603f3d011682016040523d82523d6000602084013e61061f565b606091505b5050905080610663576040517f08c379a000000000000000000000000000000000000000000000000000000000815260040161065a90610d80565b60405180910390fd5b8473ffffffffffffffffffffffffffffffffffffffff168273ffffffffffffffffffffffffffffffffffffffff167f8218f4f0b9678bdc937d18993537f67625585ea93ac5aeaae377a7db0b108ddd34846040516106c2929190610cc9565b60405180910390a35050505050565b61074d848573ffffffffffffffffffffffffffffffffffffffff166323b872dd86868660405160240161070693929190610da0565b604051602081830303815290604052915060e01b6020820180517bffffffffffffffffffffffffffffffffffffffffffffffffffffffff83818316178352505050506107d2565b50505050565b6107cd838473ffffffffffffffffffffffffffffffffffffffff1663a9059cbb8585604051602401610786929190610b68565b604051602081830303815290604052915060e01b6020820180517bffffffffffffffffffffffffffffffffffffffffffffffffffffffff83818316178352505050506107d2565b505050565b600080602060008451602086016000885af1806107f5576040513d6000823e3d81fd5b3d92506000519150506000821461081057600181141561082c565b60008473ffffffffffffffffffffffffffffffffffffffff163b145b1561086e57836040517f5274afe700000000000000000000000000000000000000000000000000000000815260040161086591906108b5565b60405180910390fd5b50505050565b600073ffffffffffffffffffffffffffffffffffffffff82169050919050565b600061089f82610874565b9050919050565b6108af81610894565b82525050565b60006020820190506108ca60008301846108a6565b92915050565b600080fd5b600080fd5b6108e381610894565b81146108ee57600080fd5b50565b600081359050610900816108da565b92915050565b600080fd5b600080fd5b600080fd5b60008083601f84011261092b5761092a610906565b5b8235905067ffffffffffffffff8111156109485761094761090b565b5b60208301915083600182028301111561096457610963610910565b5b9250929050565b6000819050919050565b61097e8161096b565b811461098957600080fd5b50565b60008135905061099b81610975565b92915050565b60008060008060008060a087890312156109be576109bd6108d0565b5b60006109cc89828a016108f1565b96505060206109dd89828a016108f1565b955050604087013567ffffffffffffffff8111156109fe576109fd6108d5565b5b610a0a89828a01610915565b94509450506060610a1d89828a0161098c565b9250506080610a2e89828a016108f1565b9150509295509295509295565b600060208284031215610a5157610a506108d0565b5b6000610a5f848285016108f1565b91505092915050565b60008060008060608587031215610a8257610a816108d0565b5b6000610a90878288016108f1565b945050602085013567ffffffffffffffff811115610ab157610ab06108d5565b5b610abd87828801610915565b93509350506040610ad0878288016108f1565b91505092959194509250565b600082825260208201905092915050565b7f4e6f74206f776e65720000000000000000000000000000000000000000000000600082015250565b6000610b23600983610adc565b9150610b2e82610aed565b602082019050919050565b60006020820190508181036000830152610b5281610b16565b9050919050565b610b628161096b565b82525050565b6000604082019050610b7d60008301856108a6565b610b8a6020830184610b59565b9392505050565b60008115159050919050565b610ba681610b91565b8114610bb157600080fd5b50565b600081519050610bc381610b9d565b92915050565b600060208284031215610bdf57610bde6108d0565b5b6000610bed84828501610bb4565b91505092915050565b600081905092915050565b82818337600083830152505050565b6000610c1c8385610bf6565b9350610c29838584610c01565b82840190509392505050565b6000610c42828486610c10565b91508190509392505050565b7f546f6b656e207377617020657865637574696f6e206661696c65640000000000600082015250565b6000610c84601b83610adc565b9150610c8f82610c4e565b602082019050919050565b60006020820190508181036000830152610cb381610c77565b9050919050565b610cc381610b91565b82525050565b6000604082019050610cde6000830185610b59565b610ceb6020830184610cba565b9392505050565b600081519050610d0181610975565b92915050565b600060208284031215610d1d57610d1c6108d0565b5b6000610d2b84828501610cf2565b91505092915050565b7f5377617020657865637574696f6e206661696c65640000000000000000000000600082015250565b6000610d6a601583610adc565b9150610d7582610d34565b602082019050919050565b60006020820190508181036000830152610d9981610d5d565b9050919050565b6000606082019050610db560008301866108a6565b610dc260208301856108a6565b610dcf6040830184610b59565b94935050505056fea2646970667358221220a0bbb275e7206d9df1eff66d18de0fc6fffdc15a3d63e8f41f50c9128c86fd2464736f6c63430008140033",
  "linkReferences": {},
  "deployedLinkReferences": {}
}